S00A00004E372E7372656395
S11300000C9434000C943E000C943E000C943E007E
S11300100C943E000C943E000C943E000C943E0064
S11300200C943E000C943E000C943E000C943E0054
S11300300C943E000C943E000C943E000C943E0044
S11300400C943E000C943E000C943E000C943E0034
S11300500C943E000C943E000C943E000C943E0024
S11300600C943E000C943E0011241FBECFEFD8E048
S1130070DEBFCDBF0E9440000C9472000C940000BF
S11300808FEF87B98AB984E085BD83E084BD84B5E8
S1130090806884BD16BC10926E0082E085BB8FEF31
S11300A087BD88B1806188B988B18F7D88B92FEF09
S11300B083ED90E3215080409040E1F700C00000C0
S11300C084E187BD88B1806188B988B18F7D88B9A2
S11300D02FEF83ED90E3215080409040E1F700C082
S10B00E00000DDCFF894FFCF0E
S9030000FC
