S00C00004E6F2E362E73726563F7
S11300000C9434000C9446000C9446000C94460066
S11300100C9446000C9446000C9446000C94480042
S11300200C9446000C9446000C9446000C94460034
S11300300C9446000C9446000C9446000C94460024
S11300400C9446000C9446000C9446000C94460014
S11300500C9446000C9446000C9446000C94460004
S11300600C9446000C94460011241FBECFEFD8E038
S1130070DEBFCDBF21E0A0E0B1E001C01D92A830F9
S1130080B207E1F70E9499000C9487010C940000D8
S11300901F920F920FB60F9211242F933F934F93F9
S11300A05F936F937F938F939F93AF9320910001FE
S11300B030910101409102015091030160910401CA
S11300C0709105018091060190910701A1E00E94C1
S11300D07201209300013093010140930201509377
S11300E003016093040170930501809306019093CA
S11300F00701AF919F918F917F916F915F914F9184
S11301003F912F910F900FBE0F901F90189584E090
S11301108093B100E0EBF0E080818260808382E034
S11301208093700087BB1092B20089EF8093B30074
S11301300895CF93DF93CDB7DEB764970FB6F894E5
S1130140DEBF0FBECDBF8FEF87B978940E948700C2
S1130150109100011B83809101018C831091020195
S11301601D83809103018E83109104011F8380916C
S113017005018887109106011987809107018A87F4
S1130180809100018091010180910201809103011D
S113019080910401809105018091060180910701FD
S11301A0109100011B87809101018C87109102013D
S11301B01D87809103018E87109104011F87809110
S11301C00501888B10910601198B809107018A8B98
S11301D080910001809101018091020180910301CD
S11301E080910401809105018091060180910701AD
S11301F020900001309001014090020150900301D1
S113020060900401709005018090060190900701B0
S1130210109100011C8B809101018B8BB091020124
S1130220A0910301F09104011091050119838091BB
S113023006018A83E0910701222D332D442D552D8B
S1130240662D772D882D992DAB80BC80CD80DE80E6
S1130250EF80F88409851A850E947E0126393105CC
S113026041055105610571058105910569F060F04D
S113027098B180E2892788B92B823C824D825E82C4
S11302806F82788689869A862C893B894B2F5A2FD0
S11302906F2F79818A819E2FAB84BC84CD84DE84C8
S11302A0EF84F88809891A890E947E01243F31402D
S11302B041055105610571058105910509F008F4B1
S11302C097CF98B180E1892788B98C898B871B895E
S11302D01C87BD87AE87FF878981888B1A81198B1C
S11302E0EA8B86CF0024A7FD00942A0F301D401D01
S11302F0501D601D701D801D901D08952A193B0915
S11303004C095D096E097F09800B910B0895F894DF
S1050310FFCF19
S9030000FC
