:100000000C9434000C9446000C9446000C9446006A
:100010000C9446000C9446000C9446000C94480046
:100020000C9446000C9446000C9446000C94460038
:100030000C9446000C9446000C9446000C94460028
:100040000C9446000C9446000C9446000C94460018
:100050000C9446000C9446000C9446000C94460008
:100060000C9446000C94460011241FBECFEFD8E03C
:10007000DEBFCDBF21E0A0E0B1E001C01D92A830FD
:10008000B207E1F70E9499000C9439010C9400002A
:100090001F920F920FB60F9211242F933F934F93FD
:1000A0005F936F937F938F939F93AF932091000102
:1000B00030910101409102015091030160910401CE
:1000C000709105018091060190910701A1E00E94C5
:1000D00024012093000130930101409302015093C9
:1000E00003016093040170930501809306019093CE
:1000F0000701AF919F918F917F916F915F914F9188
:100100003F912F910F900FBE0F901F90189584E094
:100110008093B100E0EBF0E080818260808382E038
:100120008093700087BB1092B20089EF8093B30078
:100130000895CF93DF9300D000D01F92CDB7DEB7E4
:100140008FEF87B978940E9487002090000130904B
:1001500001014090020150900301609004017090F1
:100160000501E0910601E983E0910701EA838091AE
:100170000001809101018091020180910301809131
:10018000040180910501809106018091070188B1E9
:10019000816088B98090000190900101E091020196
:1001A000EC83E0910301EB83B0910401A091050180
:1001B000F0910601E0910701ED83282D392D4C8146
:1001C0005B816B2F7A2F8F2F9E2FA22CB32CC42CE8
:1001D000D52CE62CF72C09811A810E943001A22E21
:1001E000B32EC42ED52EE62EF72E082F192F283C1D
:1001F000310541055105610571058105910521F024
:1002000018F088B18F7E88B92A2D3B2D4C2D5D2D9D
:100210006E2D7F2D802F912F283E334041055105B3
:10022000610571058105910509F008F4B3CF88B126
:10023000806188B9282C392C4C805B806B2E7A2EFB
:10024000F983ED81EA83A6CF0024A7FD00942A0F4D
:10025000301D401D501D601D701D801D901D089596
:100260002A193B094C095D096E097F09800B910B26
:060270000895F894FFCF91
:00000001FF
