:100000000C9434000C9451000C9451000C94510049
:100010000C9451000C9451000C9451000C9451001C
:100020000C9451000C9451000C9451000C9451000C
:100030000C9451000C9451000C9451000C945100FC
:100040000C9451000C9451000C9451000C945100EC
:100050000C9451000C9451000C9451000C945100DC
:100060000C9451000C94510011241FBECFEFD8E026
:10007000DEBFCDBF11E0A0E0B1E0ECE8FDE002C0E2
:1000800005900D92A83CB107D9F721E0A8ECB1E0AA
:1000900001C01D92AA3DB207E1F70E94B3000C9483
:1000A000C4060C940000E0ECF0E0908195FFFDCFD9
:1000B0008093C60080E090E008950E94DB029B01DF
:1000C000AC0160E074E284E799E40E943A0220E027
:1000D00030E040E85FE30E94CD010E9469030E9486
:1000E000AC027093C5006093C40088E08093C100A7
:1000F0008EE08093C20084E091E09093D7018093DA
:10010000D601089583E085BD81E084BD84B5806813
:1001100084BD10926E0082E085BB16BC17BC569A57
:1001200085BB089587B1806387B988B18F7C88B912
:1001300008954498459A08954598449A0895449896
:1001400045980895EAE7F0E0808187608083ACE716
:10015000B0E08C9180648C938081806A8083808100
:100160008064808308950E9482000E94A2000E9401
:10017000920060E072EC81E090E00E945D00E1ECB2
:10018000F0E08081806180838FEF87BD81E0809384
:10019000D30180E092E090930301809302011092DA
:1001A000D0012FEF8DE399E4215080409040E1F79A
:1001B00000C0000082E191E00E94CC0380E291E067
:1001C0000E94CC0383E391E00E94CC0386E491E09B
:1001D0000E94CC0387E591E00E94CC0388E691E081
:1001E0000E94CC0382E891E00E94CC03C8E7D0E0F3
:1001F00000EC10E00F2EF6ECAF2EB12CF02D0F2EF0
:10020000FFE9CF2EF1E0DF2EF02D77247A94EE2453
:10021000EA94FE2C0F2EF8EC8F2E912CF02D80916D
:10022000D301853110F01092D3018091D00187BDA8
:10023000888199812091020130910301281B390B9B
:10024000A9012093C8015093C9011092CA011092CC
:10025000CB011092CC011092CD011092CE011092E0
:10026000CF014091D301429FC001439F900D1124C3
:100270009093D2018093D1019C01992324F42227E9
:100280003327281B390B2F3F310521F01CF07092CA
:10029000D00102C02093D001181619061CF40E9448
:1002A000990007C099231CF40E949C0002C00E9480
:1002B0009F00F80180818823CCF4F5018081282FEC
:1002C00030E030930101209300011F928F93DF9261
:1002D000CF920E94B60380910001909101010F908E
:1002E0000F900F900F90992334F499CFF092010161
:1002F000E092000194CF8033910531F134F48B32D8
:100300009105E1F08D97A1F021C08136910521F092
:100310008337910531F01AC0909203018092020157
:1003200015C080E293E090930301809302010EC018
:100330008091D30181508093D30108C08091D30173
:100340008F5F8093D30102C01092D301888199817D
:100350002091D3011F922F93E8ECF1E021812F939C
:1003600020812F939F938F93809103018F9380918E
:1003700002018F9387EA91E09F938F930E94B603C7
:10038000F0920101E09200018DB79EB70A960FB678
:10039000F8949EBF0FBE8DBF42CF5058BB27AA27EF
:1003A0000E94E5010C942F030E94210338F00E9463
:1003B000280320F039F49F3F19F426F40C941E030F
:1003C0000EF4E095E7FB0C941803E92F0E9440031C
:1003D00058F3BA17620773078407950720F079F47A
:1003E000A6F50C9462030EF4E0950B2EBA2FA02D07
:1003F0000B01B90190010C01CA01A0011124FF27D2
:10040000591B99F0593F50F4503E68F11A16F040CC
:10041000A22F232F342F4427585FF3CF46953795CB
:100420002795A795F0405395C9F77EF41F16BA0B90
:10043000620B730B840BBAF09150A1F0FF0FBB1F3E
:10044000661F771F881FC2F70EC0BA0F621F731F87
:10045000841F48F4879577956795B795F7959E3FE4
:1004600008F0B0CF9395880F08F09927EE0F979575
:10047000879508950E944E020C942F030E94280332
:1004800058F00E94210340F029F45F3F29F00C94BA
:10049000180351110C9463030C941E030E94400333
:1004A00068F39923B1F3552391F3951B550BBB27A3
:1004B000AA2762177307840738F09F5F5F4F220FE8
:1004C000331F441FAA1FA9F335D00E2E3AF0E0E8DF
:1004D00032D091505040E695001CCAF72BD0FE2F29
:1004E00029D0660F771F881FBB1F261737074807BD
:1004F000AB07B0E809F0BB0B802DBF01FF27935875
:100500005F4F3AF09E3F510578F00C9418030C941D
:1005100063035F3FE4F3983ED4F386957795679540
:10052000B795F7959F5FC9F7880F911D96958795A9
:1005300097F90895E1E0660F771F881FBB1F6217C8
:1005400073078407BA0720F0621B730B840BBA0B86
:10055000EE1F88F7E09508950E94480388F09F57A2
:1005600098F0B92F9927B751B0F0E1F0660F771FD7
:10057000881F991F1AF0BA95C9F714C0B13091F0CD
:100580000E946203B1E008950C946203672F782FF4
:100590008827B85F39F0B93FCCF386957795679592
:1005A000B395D9F73EF490958095709561957F4FFE
:1005B0008F4F9F4F0895E89409C097FB3EF49095A4
:1005C0008095709561957F4F8F4F9F4F9923A9F02C
:1005D000F92F96E9BB279395F695879577956795BB
:1005E000B795F111F8CFFAF4BB0F11F460FF1BC0FF
:1005F0006F5F7F4F8F4F9F4F16C0882311F096E992
:1006000011C0772321F09EE8872F762F05C066233F
:1006100071F096E8862F70E060E02AF09A95660FF8
:10062000771F881FDAF7880F9695879597F90895B1
:1006300097F99F6780E870E060E008959FEF80EC95
:10064000089500240A941616170618060906089538
:1006500000240A9412161306140605060895092E9E
:100660000394000C11F4882352F0BB0F40F4BF2B0D
:1006700011F460FF04C06F5F7F4F8F4F9F4F08954D
:1006800057FD9058440F551F59F05F3F71F0479543
:10069000880F97FB991F61F09F3F79F08795089528
:1006A000121613061406551FF2CF4695F1DF08C047
:1006B000161617061806991FF1CF86957105610564
:1006C00008940895E894BB2766277727CB0197F90C
:1006D00008950E944803E8F09E37E8F09639B8F490
:1006E0009E3848F4672F782F8827985FF9CF869532
:1006F0007795679593959539D0F3B62FB1706B0FB9
:10070000711D811D20F487957795679593950C94BD
:100710008D030C94A8030C946303882371F477234E
:1007200021F09850872B762F07C0662311F4992764
:100730000DC09051862B70E060E02AF09A95660F0C
:10074000771F881FDAF7880F9695879597F9089590
:100750009F3F31F0915020F4879577956795B79535
:10076000880F911D9695879597F90895A0E0B0E0C0
:10077000ECEBF3E00C949D06AE014B5F5F4FFA018A
:1007800061917191AF018091D6019091D7010E9442
:10079000FC03E2E00C94B9060F931F93CF93DF9311
:1007A000E091D601F091D701238121FF1BC08C017C
:1007B000D0E0C0E0F80181918F016091D601709185
:1007C000D701DB011896ED91FC911997882331F040
:1007D0000995892B79F3DFEFCFEFECCF8AE009950C
:1007E000892B19F08FEF9FEF02C08D2F9C2FDF9187
:1007F000CF911F910F910895ABE0B0E0E2E0F4E0FB
:100800000C948D066C017B018A01FC011782168213
:10081000838181FFCCC1CE0101963C01F601938119
:10082000F70193FD859193FF81917F01882309F45E
:10083000BAC1853239F493FD859193FF81917F018F
:10084000853229F4B60190E00E94F305E7CF912CA0
:10085000212C312CFFE1F315D8F08B3279F038F4EC
:10086000803279F08332A1F4232D20611DC08D32B6
:1008700061F0803369F4232D216016C0832D8260DE
:10088000382EE32DE4603E2E2AC0F32DF8601DC003
:1008900037FC2DC020ED280F2A3040F08E32B9F4FD
:1008A00036FC81C1232D2064322E19C036FE06C0CD
:1008B0008AE0989E200D1124922E11C0EAE02E9E0F
:1008C000200D1124222EF32DF0623F2E08C08C360D
:1008D00021F4832D8068382E02C0883641F4F70158
:1008E00093FD859193FF81917F018111B3CF982F63
:1008F0009F7D9554933028F40C5F1F4F9FE399839D
:100900000DC0833631F0833771F0833509F059C05B
:1009100021C0F801808189830E5F1F4F8824839452
:10092000912C530113C02801F2E04F0E511CF80125
:10093000A080B18036FE03C0692D70E002C06FEF69
:100940007FEFC5010E94E8054C018201F32DFF777E
:100950003F2E16C0280122E0420E511CF801A08053
:10096000B18036FE03C0692D70E002C06FEF7FEFEB
:10097000C5010E94DD054C01F32DF0683F2E820178
:1009800033FC1BC0822D90E088169906B0F4B601A6
:1009900080E290E00E94F3052A94F4CFF50137FC41
:1009A000859137FE81915F01B60190E00E94F305C9
:1009B00021102A9421E0821A91088114910471F780
:1009C000E8C0843611F0893641F5F80137FE07C0DA
:1009D00060817181828193810C5F1F4F08C06081AB
:1009E0007181072E000C880B990B0E5F1F4FF32DA2
:1009F000FF763F2E97FF09C0909580957095619581
:100A00007F4F8F4F9F4FF0683F2E2AE030E0A301C9
:100A10000E942F06882E861845C0853731F4232D75
:100A20002F7EB22E2AE030E025C0932D997FB92E7B
:100A30008F36C1F018F4883579F0B5C0803719F0D9
:100A4000883721F0B0C0E92FE061BE2EB4FE0DC0A2
:100A5000FB2DF460BF2E09C034FE0AC0292F26608A
:100A6000B22E06C028E030E005C020E130E002C030
:100A700020E132E0F801B7FE07C060817181828118
:100A800093810C5F1F4F06C06081718180E090E010
:100A90000E5F1F4FA3010E942F06882E8618FB2D84
:100AA000FF773F2E36FE0DC0232D2E7FA22E8914F8
:100AB00058F434FE0BC032FC09C0832D8E7EA82E64
:100AC00005C0B82CA32C03C0B82C01C0B92CA4FEBF
:100AD0000FC0FE01E80DF11D8081803321F49A2DB5
:100AE000997EA92E09C0A2FE06C0B394B39404C097
:100AF0008A2D867809F0B394A3FC11C0A0FE06C02D
:100B0000B21488F4280C922C9B180EC0B21460F416
:100B1000B60180E290E00E94F305B394F7CFB214DF
:100B200018F42B1802C0982C212CA4FE10C0B6017A
:100B300080E390E00E94F305A2FE17C0A1FC03C071
:100B400088E790E002C088E590E0B6010CC08A2DED
:100B5000867859F0A1FE02C08BE201C080E2A7FCBA
:100B60008DE2B60190E00E94F305891438F4B601D5
:100B700080E390E00E94F3059A94F7CF8A94F30102
:100B8000E80DF11D8081B60190E00E94F30581100F
:100B9000F5CF222009F442CEB60180E290E00E9417
:100BA000F3052A94F6CFF6018681978102C08FEF74
:100BB0009FEF2B96E2E10C94A906FC010590615091
:100BC00070400110D8F7809590958E0F9F1F089563
:100BD000FC016150704001900110D8F7809590950C
:100BE0008E0F9F1F08950F931F93CF93DF93FB01E9
:100BF000238121FD03C08FEF9FEF2CC022FF16C081
:100C000046815781248135814217530744F4A081DE
:100C1000B1819D012F5F3F4F318320838C932681CB
:100C200037812F5F3F4F3783268314C08B01EC0140
:100C3000FB010084F185E02D0995892BE1F6D801AF
:100C400016968D919C911797019617969C938E936B
:100C50001697CE01DF91CF911F910F910895FA0160
:100C6000AA27283051F1203181F1E8946F936E7FEB
:100C70006E5F7F4F8F4F9F4FAF4FB1E03ED0B4E0DC
:100C80003CD0670F781F891F9A1FA11D680F791F1D
:100C90008A1F911DA11D6A0F711D811D911DA11D2E
:100CA00020D009F468943F912AE0269F112430193E
:100CB000305D3193DEF6CF010895462F4770405DD9
:100CC0004193B3E00FD0C9F7F6CF462F4F70405D88
:100CD0004A3318F0495D31FD4052419302D0A9F7E3
:100CE000EACFB4E0A6959795879577956795BA95DD
:100CF000C9F700976105710508959B01AC010A2EA3
:100D000006945795479537952795BA95C9F7620F79
:100D1000731F841F951FA01D08952F923F924F921D
:100D20005F926F927F928F929F92AF92BF92CF927B
:100D3000DF92EF92FF920F931F93CF93DF93CDB784
:100D4000DEB7CA1BDB0B0FB6F894DEBF0FBECDBFFC
:100D500009942A88398848885F846E847D848C84CD
:100D60009B84AA84B984C884DF80EE80FD800C81D6
:100D70001B81AA81B981CE0FD11D0FB6F894DEBFB9
:0C0D80000FBECDBFED010895F894FFCF29
:100D8C00FFFF000200000002000000005300000002
:100D9C000000636F6D6D616E64206C6973743A0052
:100DAC00613A207265666572656E6365203D20321E
:100DBC00303000733A207265666572656E6365202B
:100DCC003D20383030002B3A206761696E203D2081
:100DDC006761696E2B31002D3A206761696E203D89
:100DEC00206761696E2D3100303A206761696E2091
:100DFC003D203020286D6F746F722073746F707388
:100E0C002900616E79206B65793A206A75737420BC
:100E1C00646973706C61792076616C7565730063BD
:100E2C006D643D25630A007265663D25642C414462
:100E3C00433D25642C6572726F723D25642C67618D
:080E4C00696E3D25640A0000F7
:00000001FF
