:100000000C9434000C9451000C9451000C94510049
:100010000C9451000C9451000C9451000C9451001C
:100020000C9451000C9451000C9451000C9451000C
:100030000C9451000C9451000C9451000C945100FC
:100040000C9451000C9451000C9451000C945100EC
:100050000C9451000C9451000C9451000C945100DC
:100060000C9451000C94510011241FBECFEFD8E026
:10007000DEBFCDBF11E0A0E0B1E0E6E8F5E002C0F0
:1000800005900D92AE30B107D9F721E0AEE0B1E0B6
:1000900001C01D92A531B207E1F70E9492000C94B5
:1000A000C1020C940000E0ECF0E0908195FFFDCFE0
:1000B0008093C60080E090E008950E94E6019B01D5
:1000C000AC0160E074E284E799E40E94450120E01D
:1000D00030E040E85FE30E94D8000E9474020E9472
:1000E000B7017093C5006093C40088E08093C1009D
:1000F0008EE08093C20080E091E0909312018093A3
:100100001101089583E085BD81E084BD84B58068D8
:1001100084BD10926E0082E085BB16BC17BC569A57
:1001200085BB08950E94820060E072EC81E090E05F
:100130000E945D008FEF87B918B817BC2FEF37EA20
:1001400081E6215030408040E1F700C000008AEF96
:1001500080930E0187BD4498459A9FEF27EA31E6C8
:10016000915020403040E1F700C00000449845988D
:100170009FEF21EE34E0915020403040E1F700C085
:1001800000004598449A9FEF27EA31E691502040BD
:100190003040E1F700C00000449845989FEF21EE01
:1001A00034E0915020403040E1F700C00000D0CF53
:1001B0005058BB27AA270E94F0000C943A020E94D4
:1001C0002C0238F00E94330220F039F49F3F19F4DA
:1001D00026F40C9429020EF4E095E7FB0C9423021C
:1001E000E92F0E944B0258F3BA176207730784077E
:1001F000950720F079F4A6F50C946D020EF4E095C5
:100200000B2EBA2FA02D0B01B90190010C01CA01D0
:10021000A0011124FF27591B99F0593F50F4503E7B
:1002200068F11A16F040A22F232F342F4427585F6D
:10023000F3CF469537952795A795F0405395C9F785
:100240007EF41F16BA0B620B730B840BBAF091503D
:10025000A1F0FF0FBB1F661F771F881FC2F70EC0DC
:10026000BA0F621F731F841F48F4879577956795AF
:10027000B795F7959E3F08F0B0CF9395880F08F09B
:100280009927EE0F9795879508950E9459010C9430
:100290003A020E94330258F00E942C0240F029F4E6
:1002A0005F3F29F00C94230251110C946E020C94C0
:1002B00029020E944B0268F39923B1F3552391F36D
:1002C000951B550BBB27AA2762177307840738F0C5
:1002D0009F5F5F4F220F331F441FAA1FA9F335D022
:1002E0000E2E3AF0E0E832D091505040E695001CD6
:1002F000CAF72BD0FE2F29D0660F771F881FBB1F90
:10030000261737074807AB07B0E809F0BB0B802D6D
:10031000BF01FF2793585F4F3AF09E3F510578F099
:100320000C9423020C946E025F3FE4F3983ED4F3E6
:10033000869577956795B795F7959F5FC9F7880F6D
:10034000911D9695879597F90895E1E0660F771FBF
:10035000881FBB1F621773078407BA0720F0621B50
:10036000730B840BBA0BEE1F88F7E09508950E947B
:10037000530288F09F5798F0B92F9927B751B0F0E2
:10038000E1F0660F771F881F991F1AF0BA95C9F719
:1003900014C0B13091F00E946D02B1E008950C9448
:1003A0006D02672F782F8827B85F39F0B93FCCF3FB
:1003B000869577956795B395D9F73EF49095809596
:1003C000709561957F4F8F4F9F4F0895E89409C0B6
:1003D00097FB3EF490958095709561957F4F8F4F78
:1003E0009F4F9923A9F0F92F96E9BB279395F6958E
:1003F000879577956795B795F111F8CFFAF4BB0F0C
:1004000011F460FF1BC06F5F7F4F8F4F9F4F16C06F
:10041000882311F096E911C0772321F09EE8872FF9
:10042000762F05C0662371F096E8862F70E060E0B5
:100430002AF09A95660F771F881FDAF7880F96952E
:10044000879597F9089597F99F6780E870E060E0D5
:1004500008959FEF80EC089500240A94161617065D
:1004600018060906089500240A94121613061406A5
:1004700005060895092E0394000C11F4882352F008
:10048000BB0F40F4BF2B11F460FF04C06F5F7F4FC0
:100490008F4F9F4F089557FD9058440F551F59F0A7
:1004A0005F3F71F04795880F97FB991F61F09F3F61
:1004B00079F087950895121613061406551FF2CF8A
:1004C0004695F1DF08C0161617061806991FF1CFDA
:1004D00086957105610508940895E894BB27662701
:1004E0007727CB0197F908950E945302E8F09E37D1
:1004F000E8F09639B8F49E3848F4672F782F8827AB
:10050000985FF9CF86957795679593959539D0F350
:10051000B62FB1706B0F711D811D20F487957795F3
:10052000679593950C9498020C94B3020C946E0208
:10053000882371F4772321F09850872B762F07C0FA
:10054000662311F499270DC09051862B70E060E06E
:100550002AF09A95660F771F881FDAF7880F96950D
:10056000879597F908959F3F31F0915020F4879532
:1005700077956795B795880F911D9695879597F90B
:060580000895F894FFCF7E
:0E058600000000020000000053000000000012
:00000001FF
