S00A00004E362E7372656396
S11300000C9434000C943E000C943E000C943E007E
S11300100C943E000C943E000C943E000C943E0064
S11300200C943E000C943E000C943E000C943E0054
S11300300C943E000C943E000C943E000C943E0044
S11300400C943E000C943E000C943E000C943E0034
S11300500C943E000C943E000C943E000C943E0024
S11300600C943E000C943E0011241FBECFEFD8E048
S1130070DEBFCDBF0E9440000C945B000C940000D6
S11300808FEF87B98AB984E085BD83E084BD84B5E8
S1130090806884BD16BC10926E0082E085BB8EEB36
S11300A087BD8BB180648BB988B1806188B988B110
S10D00B08F7D88B9F4CFF894FFCFD8
S9030000FC
