:100000000C9434000C943E000C943E000C943E0082
:100010000C943E000C943E000C943E000C943E0068
:100020000C943E000C943E000C943E000C943E0058
:100030000C943E000C943E000C943E000C943E0048
:100040000C943E000C943E000C943E000C943E0038
:100050000C943E000C943E000C943E000C943E0028
:100060000C943E000C943E0011241FBECFEFD8E04C
:10007000DEBFCDBF0E9466000C9493000C9400007C
:100080009B01AC0160E874E88EE190E00E94710091
:10009000215031093093C5002093C40082E0809341
:1000A000C00088E18093C1008EE08093C200089573
:1000B0009091C00095FFFCCF8093C6000895809179
:1000C000C0008823E4F78091C600089560E072ECD8
:1000D00081E090E00E9440000E945F000E94580072
:1000E000FBCFA1E21A2EAA1BBB1BFD010DC0AA1F4C
:1000F000BB1FEE1FFF1FA217B307E407F50720F091
:10010000A21BB30BE40BF50B661F771F881F991F0B
:100110001A9469F760957095809590959B01AC0154
:0A012000BD01CF010895F894FFCF50
:00000001FF
