:100000000C9434000C943E000C943E000C943E0082
:100010000C943E000C943E000C943E000C943E0068
:100020000C943E000C943E000C943E000C943E0058
:100030000C943E000C943E000C943E000C943E0048
:100040000C943E000C943E000C943E000C943E0038
:100050000C943E000C943E000C943E000C943E0028
:100060000C943E000C943E0011241FBECFEFD8E04C
:10007000DEBFCDBF0E9440000C9480000C940000B5
:100080008FEF87B98AB98BB180648BB988B18061F1
:1000900088B988B18F7D88B92FEF83ED90E3215027
:1000A00080409040E1F700C000008BB18F7B8BB99E
:1000B0002FEF89E698E1215080409040E1F700C0A1
:1000C00000008BB180648BB988B18F7E88B988B10C
:1000D000806288B92FEF83ED90E3215080409040FB
:1000E000E1F700C000008BB18F7B8BB92FEF89E661
:1000F00098E1215080409040E1F700C00000C3CF5C
:04010000F894FFCFA1
:00000001FF
