S00A00004E342E7372656398
S11300000C9434000C943E000C943E000C943E007E
S11300100C943E000C943E000C943E000C943E0064
S11300200C943E000C943E000C943E000C943E0054
S11300300C943E000C943E000C943E000C943E0044
S11300400C943E000C943E000C943E000C943E0034
S11300500C943E000C943E000C943E000C943E0024
S11300600C943E000C943E0011241FBECFEFD8E048
S1130070DEBFCDBF0E9440000C9465000C940000CC
S11300808FEF87B98AB98BB180648BB988B18F7EC1
S113009088B988B1806288B92FEF83ED90E321504D
S11300A080409040E1F700C0000088B1806188B9C9
S11300B088B1806288B92FEF83ED90E321508040AE
S11100C09040E1F700C00000DECFF894FFCFBF
S9030000FC
