:100000000C9434000C943E000C943E000C943E0082
:100010000C943E000C943E000C943E000C943E0068
:100020000C943E000C943E000C943E000C943E0058
:100030000C943E000C943E000C943E000C943E0048
:100040000C943E000C943E000C943E000C943E0038
:100050000C943E000C943E000C943E000C943E0028
:100060000C943E000C943E0011241FBECFEFD8E04C
:10007000DEBFCDBF0E9440000C945B000C940000DA
:100080008FEF8AB98BB180618BB92FEF83ED90E34D
:10009000215080409040E1F700C000008BB18F7E7E
:1000A0008BB92FEF87EA91E6215080409040E1F72D
:0A00B00000C00000E7CFF894FFCF76
:00000001FF
