:100000000C9434000C9451000C9451000C94510049
:100010000C9451000C9451000C9451000C94640009
:100020000C9451000C9451000C9451000C9451000C
:100030000C9451000C9451000C9451000C945100FC
:100040000C9451000C9451000C94A3000C9451009A
:100050000C9451000C9451000C9451000C945100DC
:100060000C9451000C94510011241FBECFEFD8E026
:10007000DEBFCDBF11E0A0E0B1E0E2E8FBE002C0EE
:1000800005900D92AA33B107D9F721E0AAE3B1E0B8
:1000900001C01D92A435B207E1F70E9467010C94DC
:1000A000BF050C940000CF93C82F8A3019F48DE05F
:1000B0000E9453008091C00085FFFCCFC093C60012
:1000C00080E090E0CF9108951F920F920FB60F92AB
:1000D00011242F933F934F935F936F937F938F934D
:1000E0009F93AF9320913A0130913B0140913C01A5
:1000F00050913D0160913E0170913F01809140011E
:1001000090914101A1E00E94C00220933A013093F6
:100110003B0140933C0150933D0160933E0170933D
:100120003F018093400190934101AF919F918F9146
:100130007F916F915F914F913F912F910F900FBEE3
:100140000F901F9018951F920F920FB60F921124C7
:100150008F939F938091C60090E0909310018093BD
:100160000F018091C0008C7131F08FEF9FEF909361
:10017000100180930F019F918F910F900FBE0F90F0
:100180001F90189584E08093B100E0EBF0E080814F
:100190008260808382E08093700087BB1092B200FF
:1001A00089EF8093B300089588B18F7D88B988B1B5
:1001B0008F7E88B988B1806288B9089588B18F7DB3
:1001C00088B988B18F7E88B988B1806188B908956F
:1001D00088B18F7D88B988B18F7E88B908959B01D9
:1001E000AC0160E874E88EE190E00E949E0221502C
:1001F00031093093C5002093C40082E08093C00091
:1002000088E98093C1008EE08093C20080E091E095
:1002100090935101809350010895843649F018F469
:100220008136A1F01EC0863651F08337A9F019C07F
:100230008CE291E0909343018093420112C08CEBD9
:1002400092E090934301809342010BC080910E0194
:100250008F5F80930E0105C080910E0181508093C5
:100260000E01EAE7F0E080818064808380917A006B
:1002700084FFFCCFEAE7F0E080818061808387B56E
:1002800090910E011F929F9390914D019F93909199
:100290004C019F93909143019F93909142019F93B2
:1002A000E4E4F1E091819F9390819F931F928F935B
:1002B00081E191E09F938F930E94E1028DB79EB7F9
:1002C0000C960FB6F8949EBF0FBE8DBF0895CF93C6
:1002D000DF9300D000D01F92CDB7DEB780E18093CE
:1002E000C1008FEF87B98AB984E085BD83E084BD02
:1002F00084B5806884BD16BC10926E0082E085BB18
:10030000EAE7F0E0808187608083ACE7B0E08C9121
:1003100080648C9380818068808360E072EC81E0EF
:1003200090E00E94EF0078940E94C20060903A0131
:1003300070903B0180903C0190903D0180913E0186
:100340008C83E0913F01EB83809140018983E091B0
:100350004101EA8380913A0180913B0180913C0107
:1003600080913D0180913E0180913F01809140014B
:100370008091410120903A0130903B0140903C0136
:1003800050903D01B0913E01A0913F01F09140019C
:10039000E0914101ED83222D332D442D552D6B2FFE
:1003A0007A2F8F2F9E2FA62CB72CC82CD92CEC80FF
:1003B000FB8009811A810E94CC02A22EB32EC42E8A
:1003C000D52EE62EF72E082F192F243F3140410558
:1003D0005105610571058105910539F030F088EC12
:1003E00090E090934301809342012A2D3B2D4C2DA8
:1003F0005D2D6E2D7F2D802F912F283E334041059E
:100400005105610571058105910581F078F080E263
:1004100093E09093430180934201622C732C842CCF
:10042000952CBC83AB83F983ED81EA8380910F0126
:1004300090911001992364F080910F019091100127
:100440000E940D018FEF9FEF9093100180930F0199
:10045000EAE7F0E080818064808380917A0084FF05
:10046000FCCFEAE7F0E08081806180832091780012
:10047000309179008091420190914301821B930B4E
:1004800090934D0180934C0140910E01489F900143
:10049000499F300D11243093450120934401832F4F
:1004A000880F880B80934601809347018093480111
:1004B0008093490180934A0180934B01C90199239C
:1004C00024F488279927821B930B8B3F91051CF0FE
:1004D00084E687BD01C087BDD0904401E09045010E
:1004E000F09046010091470110914801B0914901F7
:1004F000F0914A01E0914B012D2D3E2D4F2D502FB3
:10050000612F7B2F8F2F9E2FA0E00E94D5021CF41D
:100510000E94D4002FCF2D2D3E2D4F2D502F612F17
:100520007B2F8F2F9E2FA0E00E94D50221F01CF080
:100530000E94DE001FCF0E94E8001CCFA1E21A2E0D
:10054000AA1BBB1BFD010DC0AA1FBB1FEE1FFF1F77
:10055000A217B307E407F50720F0A21BB30BE40BC7
:10056000F50B661F771F881F991F1A9469F760950E
:100570007095809590959B01AC01BD01CF010895C8
:100580000024A7FD00942A0F301D401D501D601D42
:10059000701D801D901D08952A193B094C095D09A5
:1005A0006E097F09800B910B08950024A7FD00942C
:1005B0002A17300540055005600570058005900537
:1005C0000895A0E0B0E0E7EEF2E00C949805AE01EB
:1005D0004B5F5F4FFA0161917191AF0180915001C2
:1005E000909151010E94F702E2E00C94B405ABE057
:1005F000B0E0EDEFF2E00C9488056C017B018A011C
:10060000FC0117821682838181FFCCC1CE01019645
:100610003C01F6019381F70193FD859193FF819150
:100620007F01882309F4BAC1853239F493FD85919D
:1006300093FF81917F01853229F4B60190E00E94F9
:10064000EE04E7CF912C212C312CFFE1F315D8F0EB
:100650008B3279F038F4803279F08332A1F4232D93
:1006600020611DC08D3261F0803369F4232D21603B
:1006700016C0832D8260382EE32DE4603E2E2AC002
:10068000F32DF8601DC037FC2DC020ED280F2A3057
:1006900040F08E32B9F436FC81C1232D2064322E15
:1006A00019C036FE06C08AE0989E200D1124922EB5
:1006B00011C0EAE02E9E200D1124222EF32DF062AF
:1006C0003F2E08C08C3621F4832D8068382E02C05E
:1006D000883641F4F70193FD859193FF81917F0165
:1006E0008111B3CF982F9F7D9554933028F40C5FE0
:1006F0001F4F9FE399830DC0833631F0833771F02C
:10070000833509F059C021C0F801808189830E5FCB
:100710001F4F88248394912C530113C02801F2E0C9
:100720004F0E511CF801A080B18036FE03C0692D28
:1007300070E002C06FEF7FEFC5010E94E3044C013F
:100740008201F32DFF773F2E16C0280122E0420ED2
:10075000511CF801A080B18036FE03C0692D70E005
:1007600002C06FEF7FEFC5010E94D8044C01F32D4A
:10077000F0683F2E820133FC1BC0822D90E088166A
:100780009906B0F4B60180E290E00E94EE042A944B
:10079000F4CFF50137FC859137FE81915F01B601F9
:1007A00090E00E94EE0421102A9421E0821A910820
:1007B0008114910471F7E8C0843611F0893641F54F
:1007C000F80137FE07C060817181828193810C5FDF
:1007D0001F4F08C060817181072E000C880B990B98
:1007E0000E5F1F4FF32DFF763F2E97FF09C09095A8
:1007F0008095709561957F4F8F4F9F4FF0683F2E8A
:100800002AE030E0A3010E942A05882E861845C000
:10081000853731F4232D2F7EB22E2AE030E025C01B
:10082000932D997FB92E8F36C1F018F4883579F061
:10083000B5C0803719F0883721F0B0C0E92FE061EA
:10084000BE2EB4FE0DC0FB2DF460BF2E09C034FED9
:100850000AC0292F2660B22E06C028E030E005C06D
:1008600020E130E002C020E132E0F801B7FE07C02D
:1008700060817181828193810C5F1F4F06C060810E
:10088000718180E090E00E5F1F4FA3010E942A0556
:10089000882E8618FB2DFF773F2E36FE0DC0232DA8
:1008A0002E7FA22E891458F434FE0BC032FC09C0EE
:1008B000832D8E7EA82E05C0B82CA32C03C0B82C87
:1008C00001C0B92CA4FE0FC0FE01E80DF11D80810E
:1008D000803321F49A2D997EA92E09C0A2FE06C06C
:1008E000B394B39404C08A2D867809F0B394A3FC22
:1008F00011C0A0FE06C0B21488F4280C922C9B18DC
:100900000EC0B21460F4B60180E290E00E94EE04E2
:10091000B394F7CFB21418F42B1802C0982C212CE2
:10092000A4FE10C0B60180E390E00E94EE04A2FE97
:1009300017C0A1FC03C088E790E002C088E590E002
:10094000B6010CC08A2D867859F0A1FE02C08BE258
:1009500001C080E2A7FC8DE2B60190E00E94EE04A7
:10096000891438F4B60180E390E00E94EE049A9472
:10097000F7CF8A94F301E80DF11D8081B60190E074
:100980000E94EE048110F5CF222009F442CEB60178
:1009900080E290E00E94EE042A94F6CFF601868170
:1009A000978102C08FEF9FEF2B96E2E10C94A40594
:1009B000FC010590615070400110D8F7809590952A
:1009C0008E0F9F1F0895FC0161507040019001102F
:1009D000D8F7809590958E0F9F1F08950F931F93C2
:1009E000CF93DF93FB01238121FD03C08FEF9FEFA6
:1009F0002CC022FF16C046815781248135814217C1
:100A0000530744F4A081B1819D012F5F3F4F318393
:100A100020838C93268137812F5F3F4F3783268336
:100A200014C08B01EC01FB010084F185E02D0995D8
:100A3000892BE1F6D80116968D919C911797019616
:100A400017969C938E931697CE01DF91CF911F91AD
:100A50000F910895FA01AA27283051F1203181F130
:100A6000E8946F936E7F6E5F7F4F8F4F9F4FAF4FB6
:100A7000B1E03ED0B4E03CD0670F781F891F9A1FC9
:100A8000A11D680F791F8A1F911DA11D6A0F711D7D
:100A9000811D911DA11D20D009F468943F912AE089
:100AA000269F11243019305D3193DEF6CF01089571
:100AB000462F4770405D4193B3E00FD0C9F7F6CFA2
:100AC000462F4F70405D4A3318F0495D31FD40526A
:100AD000419302D0A9F7EACFB4E0A6959795879500
:100AE00077956795BA95C9F70097610571050895DF
:100AF0009B01AC010A2E069457954795379527958B
:100B0000BA95C9F7620F731F841F951FA01D089522
:100B10002F923F924F925F926F927F928F929F920D
:100B2000AF92BF92CF92DF92EF92FF920F931F93FB
:100B3000CF93DF93CDB7DEB7CA1BDB0B0FB6F894AC
:100B4000DEBF0FBECDBF09942A88398848885F84EC
:100B50006E847D848C849B84AA84B984C884DF805D
:100B6000EE80FD800C811B81AA81B981CE0FD11D41
:100B70000FB6F894DEBF0FBECDBFED010895F89417
:020B8000FFCFA5
:100B8200000000020000000053000000000001FF0E
:100B9200FF50574D3D25642C466565643D25642C08
:100BA2007265663D25642C6572726F723D25642CF8
:0A0BB2006761696E3D25640A0000CA
:00000001FF
