:100000000C9434000C9446000C9446000C9446006A
:100010000C9446000C9446000C9446000C94480046
:100020000C9446000C9446000C9446000C94460038
:100030000C9446000C9446000C9446000C94460028
:100040000C9446000C9446000C9446000C94460018
:100050000C9446000C9446000C9446000C94460008
:100060000C9446000C94460011241FBECFEFD8E03C
:10007000DEBFCDBF21E0A0E0B1E001C01D92A830FD
:10008000B207E1F70E9499000C9416010C9400004D
:100090001F920F920FB60F9211242F933F934F93FD
:1000A0005F936F937F938F939F93AF932091000102
:1000B00030910101409102015091030160910401CE
:1000C000709105018091060190910701A1E00E94C5
:1000D00001012093000130930101409302015093EC
:1000E00003016093040170930501809306019093CE
:1000F0000701AF919F918F917F916F915F914F9188
:100100003F912F910F900FBE0F901F90189584E094
:100110008093B100E0EBF0E080818260808382E038
:100120008093700087BB1092B20089EF8093B30078
:100130000895CF93DF9300D000D0CDB7DEB78FEF17
:1001400087B978940E9487002090000130900101C7
:1001500040900201509003016090040170900501ED
:10016000109106011983809107018A838091000113
:10017000809101018091020180910301809104012D
:100180008091050180910601809107018090000116
:1001900090900101109102011C83809103018B83D7
:1001A000B0910401A0910501F0910601E0910701D1
:1001B000282D392D412F582F6B2F7A2F8F2F9E2FBF
:1001C000A22CB32CC42CD52CE62CF72C09811A8137
:1001D0000E940D0126393105410551056105710562
:1001E0008105910599F290F298B180E2892788B94A
:1001F000282C392C4C805B806B2E7A2EF983EA8375
:10020000C5CF0024A7FD00942A0F301D401D501DAE
:10021000601D701D801D901D08952A193B094C0911
:100220005D096E097F09800B910B0895F894FFCF4B
:00000001FF
