:100000000C9434000C943E000C943E000C943E0082
:100010000C943E000C943E000C943E000C943E0068
:100020000C943E000C943E000C943E000C943E0058
:100030000C943E000C943E000C943E000C943E0048
:100040000C943E000C943E000C943E000C943E0038
:100050000C943E000C943E000C943E000C943E0028
:100060000C943E000C943E0011241FBECFEFD8E04C
:10007000DEBFCDBF0E9440000C9483000C940000B2
:100080008FEF87B98AB98BB180648BB988B18061F1
:1000900088B988B18F7D88B92FEF83ED90E3215027
:1000A00080409040E1F700C0000088B1806188B9CD
:1000B00088B1806288B92FEF89E698E121508040AD
:1000C0009040E1F700C0000088B18F7E88B988B108
:1000D000806288B92FEF83ED90E3215080409040FB
:1000E000E1F700C0000088B1806188B988B1806202
:1000F00088B92FEF89E698E1215080409040E1F7E0
:0A01000000C00000C0CFF894FFCF4C
:00000001FF
